:020000040802F0
:100000002B000208FEE7000002480349034A044BA4
:100010007047000008000010080F0010880700104B
:100020008807001070477047704770B504460D464A
:100030004FF0FF362946204600F004F806463046C9
:1000400070BD000090B006460F461248076000BF22
:1000500000201149086000BF01AC10491048206021
:1000600011220021201D00F061FA041F04F1340563
:10007000084800686860284600F08AFA00BFA5F1C9
:10008000340404F1340000F083FA00BF314601A8C3
:1000900000F008F8040000100000001068060208D4
:1000A0005C0602081CB504460D46BDB912A015A198
:1000B0002B4617A2CDE90010012104F1340000F015
:1000C00083FA0AE0201D00F0ADF80646334614A27C
:1000D000012104F1340000F077FAF3E706A009A14A
:1000E0002B460BA2CDE90010012104F1340000F0F1
:1000F0006BFA00BFFEE7000030393A33383A323548
:10010000000000004A756E20203620323032330065
:1001100025642028252E36732C252E3573290000C2
:100120002569000070B504460D4600202060294670
:10013000204600F049F8204670BD014648687047E7
:10014000F8B500251E48046812E0002000901D4804
:10015000A1680068006804236A46866B1948006835
:10016000B04760680099884200D00125246800BF2C
:100170000CB1002DE9D035B1124800680068016B60
:100180001048006888470E48046815E04DB10D48D6
:10019000A168006800680423221D466B09480068B6
:1001A000B0470848A168006800680423221D866BD8
:1001B00004480068B0472468002CE7D1F8BD00006F
:1001C00000000010040000102DE9F04104460D4627
:1001D00000261248006860B11049086805E0361D25
:1001E000016809B9046002E000680028F7D100BF87
:1001F00001E00A480460681C01D0284600E030464F
:10020000A0600748A168006800680423221D876B6E
:1002100003480068B847BDE8F08100000000001006
:100220000400001010B5A4B00446607A0B2851D029
:1002300004DC03283CD00A286ED14AE00D2802D005
:100240000E2869D10EE0227A4248006800684369AE
:100250004048016821A8984721A807C81EAB07C3DA
:1002600024B010BD94F82C0080B9227A3948006877
:1002700000684369374801681BA898471BA807C84E
:1002800018AB07C318A8008880B2E9E7227A314882
:100290000068006843692F48016815A8984715A8A9
:1002A00007C812AB07C34FF6FF7101EA1040D7E74A
:1002B000227A2848006800684369264801680FA828
:1002C00098470FA807C80CAB07C3BDF8300080B231
:1002D000C6E700BF227A1F480068006843691D48CE
:1002E000016809A8984709A807C806AB07C3BDF865
:1002F0001800C0F30B0000EE100AB8EE400AD4ED6F
:10030000040A30EE600AD4ED030A20EE200ABDEEA6
:10031000C00A10EE100AA3E7227A0E4800680068AF
:1003200043690C48016803A8984703A807C88DE8EB
:1003300007009DED000AB8EE400AD4ED040A30EE45
:10034000600AD4ED030A20EE200ABDEEC00A10EECA
:10035000100A85E704000010F8B504460D466572E2
:1003600004F11400FFF7E9FE064604F12000FFF750
:10037000E4FE864212D004F12000FFF7DEFE0646BE
:1003800004F11400FFF7D9FE301A00EE100AF8EE5F
:10039000C00A9FED631A81EE200A01E0B7EE000A61
:1003A00084ED030A04F11400FFF7C7FE00EE100A03
:1003B000B8EEC00A84ED040A607A12280AD2DFE897
:1003C00000F00916092309090909093052455F742B
:1003D0008909099F012084F82D0000200090217ACE
:1003E00060680268002316691A46B04795E001204C
:1003F00084F82D0000200090217A606802680023B4
:1004000016690122B04788E0012084F82D00002001
:100410000090217A60680268022316690122B047C1
:100420007BE0012084F82D0000200090217A606894
:100430000268002316690222B047B2EE040A84ED76
:10044000030A9FED380A84ED040A66E0012084F86F
:100450002D0000200090217A606802680023166950
:100460001A46B04759E0012084F82D000020009082
:10047000217A60680268002316691A46B0474CE08A
:10048000012084F82D0000200090217A6068026825
:10049000002316690322B0479FED230A84ED030A67
:1004A000B3EE0E0A84ED040A37E0012084F82D0033
:1004B00000200090217A60680268012316690222F8
:1004C000B047B7EE000A84ED030A9FED160A84EDEB
:1004D000040A22E0022084F82D0094F82C000090F9
:1004E000217A60680268022316691A46B047B7EE9F
:1004F000000A84ED030A9FED0B0A84ED040A0CE068
:10050000012084F82D0000200090217A60680268A4
:10051000002316690122B04700BF00BFF8BD0000EC
:100520000000C842000000007B142E3E70B5044657
:100530000D46164613491448206014480068606050
:100540004FF4805000EB051104F11400FFF7EAFDB1
:10055000A0F114044FF4805000EB0510011D04F1CC
:100560002000FFF7DFFDA0F120042572002084F8B1
:100570002C00012084F82D0031462046FFF7ECFEC8
:10058000204670BD740602088006020804000010B0
:1005900010B50446002020700AA20121204600F078
:1005A00013F808A20221204600F00EF805A203214C
:1005B000204600F009F803A20421204600F004F8C8
:1005C00010BD0000000000000FB4F8B505460C4651
:1005D000012C0EDB042C0CDC09A80090621ED1B2A9
:1005E00068680268166A009B089AB047002000906D
:1005F00000BFF8BC5DF814FB9C0602082006020848
:10060000040602088C0602082F0602088C0602085F
:10061000420602089C0602084C0602080C06020864
:100620003132634170706C69636174696F6E00315F
:1006300036634170706C69636174696F6E42617397
:1006400065003556616C7565496945003653656EC0
:10065000736F720000000000F8050208A500020890
:100660000000000004060208000000000000000076
:100670000C0602080000000000000000140602083A
:100680002502020800000000000000000000000039
:10069000000000000000000000000000000000005A
:0C06A0000000000000000000000000004E
:0400000500000000F7
:00000001FF
